{
  "_format": "hh-sol-artifact-1",
  "contractName": "CC",
  "sourceName": "contracts/CC.sol",
  "abi": [
    {
      "inputs": [
        {
          "internalType": "address",
          "name": "_kiezDAO",
          "type": "address"
        }
      ],
      "stateMutability": "nonpayable",
      "type": "constructor"
    },
    {
      "anonymous": false,
      "inputs": [
        {
          "indexed": true,
          "internalType": "address",
          "name": "owner",
          "type": "address"
        },
        {
          "indexed": true,
          "internalType": "address",
          "name": "spender",
          "type": "address"
        },
        {
          "indexed": false,
          "internalType": "uint256",
          "name": "value",
          "type": "uint256"
        }
      ],
      "name": "Approval",
      "type": "event"
    },
    {
      "anonymous": false,
      "inputs": [
        {
          "indexed": true,
          "internalType": "address",
          "name": "from",
          "type": "address"
        },
        {
          "indexed": true,
          "internalType": "address",
          "name": "to",
          "type": "address"
        },
        {
          "indexed": false,
          "internalType": "uint256",
          "name": "value",
          "type": "uint256"
        }
      ],
      "name": "Transfer",
      "type": "event"
    },
    {
      "anonymous": false,
      "inputs": [
        {
          "indexed": true,
          "internalType": "address",
          "name": "user",
          "type": "address"
        },
        {
          "indexed": true,
          "internalType": "uint256",
          "name": "amount",
          "type": "uint256"
        }
      ],
      "name": "Withdrawn",
      "type": "event"
    },
    {
      "inputs": [
        {
          "internalType": "address",
          "name": "owner",
          "type": "address"
        },
        {
          "internalType": "address",
          "name": "spender",
          "type": "address"
        }
      ],
      "name": "allowance",
      "outputs": [
        {
          "internalType": "uint256",
          "name": "",
          "type": "uint256"
        }
      ],
      "stateMutability": "view",
      "type": "function"
    },
    {
      "inputs": [
        {
          "internalType": "address",
          "name": "spender",
          "type": "address"
        },
        {
          "internalType": "uint256",
          "name": "amount",
          "type": "uint256"
        }
      ],
      "name": "approve",
      "outputs": [
        {
          "internalType": "bool",
          "name": "",
          "type": "bool"
        }
      ],
      "stateMutability": "nonpayable",
      "type": "function"
    },
    {
      "inputs": [
        {
          "internalType": "address",
          "name": "account",
          "type": "address"
        }
      ],
      "name": "balanceOf",
      "outputs": [
        {
          "internalType": "uint256",
          "name": "",
          "type": "uint256"
        }
      ],
      "stateMutability": "view",
      "type": "function"
    },
    {
      "inputs": [],
      "name": "decimals",
      "outputs": [
        {
          "internalType": "uint8",
          "name": "",
          "type": "uint8"
        }
      ],
      "stateMutability": "view",
      "type": "function"
    },
    {
      "inputs": [
        {
          "internalType": "address",
          "name": "spender",
          "type": "address"
        },
        {
          "internalType": "uint256",
          "name": "subtractedValue",
          "type": "uint256"
        }
      ],
      "name": "decreaseAllowance",
      "outputs": [
        {
          "internalType": "bool",
          "name": "",
          "type": "bool"
        }
      ],
      "stateMutability": "nonpayable",
      "type": "function"
    },
    {
      "inputs": [
        {
          "internalType": "address",
          "name": "spender",
          "type": "address"
        },
        {
          "internalType": "uint256",
          "name": "addedValue",
          "type": "uint256"
        }
      ],
      "name": "increaseAllowance",
      "outputs": [
        {
          "internalType": "bool",
          "name": "",
          "type": "bool"
        }
      ],
      "stateMutability": "nonpayable",
      "type": "function"
    },
    {
      "inputs": [],
      "name": "kiezDAO",
      "outputs": [
        {
          "internalType": "address",
          "name": "",
          "type": "address"
        }
      ],
      "stateMutability": "view",
      "type": "function"
    },
    {
      "inputs": [
        {
          "internalType": "address",
          "name": "",
          "type": "address"
        }
      ],
      "name": "memberRegistered",
      "outputs": [
        {
          "internalType": "bool",
          "name": "",
          "type": "bool"
        }
      ],
      "stateMutability": "view",
      "type": "function"
    },
    {
      "inputs": [
        {
          "internalType": "uint256",
          "name": "",
          "type": "uint256"
        }
      ],
      "name": "membersList",
      "outputs": [
        {
          "internalType": "address",
          "name": "",
          "type": "address"
        }
      ],
      "stateMutability": "view",
      "type": "function"
    },
    {
      "inputs": [],
      "name": "name",
      "outputs": [
        {
          "internalType": "string",
          "name": "",
          "type": "string"
        }
      ],
      "stateMutability": "view",
      "type": "function"
    },
    {
      "inputs": [],
      "name": "register",
      "outputs": [],
      "stateMutability": "nonpayable",
      "type": "function"
    },
    {
      "inputs": [],
      "name": "symbol",
      "outputs": [
        {
          "internalType": "string",
          "name": "",
          "type": "string"
        }
      ],
      "stateMutability": "view",
      "type": "function"
    },
    {
      "inputs": [],
      "name": "totalSupply",
      "outputs": [
        {
          "internalType": "uint256",
          "name": "",
          "type": "uint256"
        }
      ],
      "stateMutability": "view",
      "type": "function"
    },
    {
      "inputs": [
        {
          "internalType": "address",
          "name": "recipient",
          "type": "address"
        },
        {
          "internalType": "uint256",
          "name": "amount",
          "type": "uint256"
        }
      ],
      "name": "transfer",
      "outputs": [
        {
          "internalType": "bool",
          "name": "",
          "type": "bool"
        }
      ],
      "stateMutability": "nonpayable",
      "type": "function"
    },
    {
      "inputs": [
        {
          "internalType": "address",
          "name": "sender",
          "type": "address"
        },
        {
          "internalType": "address",
          "name": "recipient",
          "type": "address"
        },
        {
          "internalType": "uint256",
          "name": "amount",
          "type": "uint256"
        }
      ],
      "name": "transferFrom",
      "outputs": [
        {
          "internalType": "bool",
          "name": "",
          "type": "bool"
        }
      ],
      "stateMutability": "nonpayable",
      "type": "function"
    },
    {
      "inputs": [
        {
          "internalType": "address",
          "name": "_beneficiary",
          "type": "address"
        },
        {
          "internalType": "uint256",
          "name": "_amount",
          "type": "uint256"
        }
      ],
      "name": "withdraw",
      "outputs": [],
      "stateMutability": "nonpayable",
      "type": "function"
    }
  ],
  "bytecode": "0x60806040523480156200001157600080fd5b5060405162001dd738038062001dd78339818101604052810190620000379190620001e6565b6040518060400160405280600881526020017f434320546f6b656e0000000000000000000000000000000000000000000000008152506040518060400160405280600281526020017f43430000000000000000000000000000000000000000000000000000000000008152508160039080519060200190620000bb9291906200011f565b508060049080519060200190620000d49291906200011f565b50505080600560006101000a81548173ffffffffffffffffffffffffffffffffffffffff021916908373ffffffffffffffffffffffffffffffffffffffff16021790555050620002c5565b8280546200012d9062000246565b90600052602060002090601f0160209004810192826200015157600085556200019d565b82601f106200016c57805160ff19168380011785556200019d565b828001600101855582156200019d579182015b828111156200019c5782518255916020019190600101906200017f565b5b509050620001ac9190620001b0565b5090565b5b80821115620001cb576000816000905550600101620001b1565b5090565b600081519050620001e081620002ab565b92915050565b600060208284031215620001f957600080fd5b60006200020984828501620001cf565b91505092915050565b60006200021f8262000226565b9050919050565b600073ffffffffffffffffffffffffffffffffffffffff82169050919050565b600060028204905060018216806200025f57607f821691505b602082108114156200027657620002756200027c565b5b50919050565b7f4e487b7100000000000000000000000000000000000000000000000000000000600052602260045260246000fd5b620002b68162000212565b8114620002c257600080fd5b50565b611b0280620002d56000396000f3fe608060405234801561001057600080fd5b50600436106101005760003560e01c806370a0823111610097578063c803923e11610066578063c803923e146102d7578063d90c0f0814610307578063dd62ed3e14610325578063f3fef3a31461035557610100565b806370a082311461022957806395d89b4114610259578063a457c2d714610277578063a9059cbb146102a757610100565b80631aa3a008116100d35780631aa3a008146101a157806323b872dd146101ab578063313ce567146101db57806339509351146101f957610100565b806306fdde0314610105578063095ea7b31461012357806313b8ad311461015357806318160ddd14610183575b600080fd5b61010d610371565b60405161011a919061146d565b60405180910390f35b61013d600480360381019061013891906111ff565b610403565b60405161014a9190611452565b60405180910390f35b61016d6004803603810190610168919061123b565b610421565b60405161017a9190611437565b60405180910390f35b61018b610460565b60405161019891906115cf565b60405180910390f35b6101a961046a565b005b6101c560048036038101906101c091906111b0565b610611565b6040516101d29190611452565b60405180910390f35b6101e3610709565b6040516101f091906115ea565b60405180910390f35b610213600480360381019061020e91906111ff565b610712565b6040516102209190611452565b60405180910390f35b610243600480360381019061023e919061114b565b6107be565b60405161025091906115cf565b60405180910390f35b610261610806565b60405161026e919061146d565b60405180910390f35b610291600480360381019061028c91906111ff565b610898565b60405161029e9190611452565b60405180910390f35b6102c160048036038101906102bc91906111ff565b610983565b6040516102ce9190611452565b60405180910390f35b6102f160048036038101906102ec919061114b565b6109a1565b6040516102fe9190611452565b60405180910390f35b61030f6109c1565b60405161031c9190611437565b60405180910390f35b61033f600480360381019061033a9190611174565b6109e7565b60405161034c91906115cf565b60405180910390f35b61036f600480360381019061036a91906111ff565b610a6e565b005b60606003805461038090611759565b80601f01602080910402602001604051908101604052809291908181526020018280546103ac90611759565b80156103f95780601f106103ce576101008083540402835291602001916103f9565b820191906000526020600020905b8154815290600101906020018083116103dc57829003601f168201915b5050505050905090565b6000610417610410610b63565b8484610b6b565b6001905092915050565b6007818154811061043157600080fd5b906000526020600020016000915054906101000a900473ffffffffffffffffffffffffffffffffffffffff1681565b6000600254905090565b600660003373ffffffffffffffffffffffffffffffffffffffff1673ffffffffffffffffffffffffffffffffffffffff16815260200190815260200160002060009054906101000a900460ff166105d4576001600660003373ffffffffffffffffffffffffffffffffffffffff1673ffffffffffffffffffffffffffffffffffffffff16815260200190815260200160002060006101000a81548160ff0219169083151502179055506007339080600181540180825580915050600190039060005260206000200160009091909190916101000a81548173ffffffffffffffffffffffffffffffffffffffff021916908373ffffffffffffffffffffffffffffffffffffffff16021790555061058933683635c9adc5dea00000610d36565b6103e83373ffffffffffffffffffffffffffffffffffffffff167f7084f5476618d8e60b11ef0d7d3f06914655adb8793e28ff7f018d4c76d505d560405160405180910390a361060f565b6040517f08c379a0000000000000000000000000000000000000000000000000000000008152600401610606906114cf565b60405180910390fd5b565b600061061e848484610e96565b6000600160008673ffffffffffffffffffffffffffffffffffffffff1673ffffffffffffffffffffffffffffffffffffffff1681526020019081526020016000206000610669610b63565b73ffffffffffffffffffffffffffffffffffffffff1673ffffffffffffffffffffffffffffffffffffffff168152602001908152602001600020549050828110156106e9576040517f08c379a00000000000000000000000000000000000000000000000000000000081526004016106e09061150f565b60405180910390fd5b6106fd856106f5610b63565b858403610b6b565b60019150509392505050565b60006012905090565b60006107b461071f610b63565b84846001600061072d610b63565b73ffffffffffffffffffffffffffffffffffffffff1673ffffffffffffffffffffffffffffffffffffffff16815260200190815260200160002060008873ffffffffffffffffffffffffffffffffffffffff1673ffffffffffffffffffffffffffffffffffffffff168152602001908152602001600020546107af9190611621565b610b6b565b6001905092915050565b60008060008373ffffffffffffffffffffffffffffffffffffffff1673ffffffffffffffffffffffffffffffffffffffff168152602001908152602001600020549050919050565b60606004805461081590611759565b80601f016020809104026020016040519081016040528092919081815260200182805461084190611759565b801561088e5780601f106108635761010080835404028352916020019161088e565b820191906000526020600020905b81548152906001019060200180831161087157829003601f168201915b5050505050905090565b600080600160006108a7610b63565b73ffffffffffffffffffffffffffffffffffffffff1673ffffffffffffffffffffffffffffffffffffffff16815260200190815260200160002060008573ffffffffffffffffffffffffffffffffffffffff1673ffffffffffffffffffffffffffffffffffffffff16815260200190815260200160002054905082811015610964576040517f08c379a000000000000000000000000000000000000000000000000000000000815260040161095b9061158f565b60405180910390fd5b61097861096f610b63565b85858403610b6b565b600191505092915050565b6000610997610990610b63565b8484610e96565b6001905092915050565b60066020528060005260406000206000915054906101000a900460ff1681565b600560009054906101000a900473ffffffffffffffffffffffffffffffffffffffff1681565b6000600160008473ffffffffffffffffffffffffffffffffffffffff1673ffffffffffffffffffffffffffffffffffffffff16815260200190815260200160002060008373ffffffffffffffffffffffffffffffffffffffff1673ffffffffffffffffffffffffffffffffffffffff16815260200190815260200160002054905092915050565b600560009054906101000a900473ffffffffffffffffffffffffffffffffffffffff1673ffffffffffffffffffffffffffffffffffffffff163373ffffffffffffffffffffffffffffffffffffffff1614610afe576040517f08c379a0000000000000000000000000000000000000000000000000000000008152600401610af59061152f565b60405180910390fd5b610b1b82670de0b6b3a764000083610b169190611677565b610d36565b808273ffffffffffffffffffffffffffffffffffffffff167f7084f5476618d8e60b11ef0d7d3f06914655adb8793e28ff7f018d4c76d505d560405160405180910390a35050565b600033905090565b600073ffffffffffffffffffffffffffffffffffffffff168373ffffffffffffffffffffffffffffffffffffffff161415610bdb576040517f08c379a0000000000000000000000000000000000000000000000000000000008152600401610bd29061156f565b60405180910390fd5b600073ffffffffffffffffffffffffffffffffffffffff168273ffffffffffffffffffffffffffffffffffffffff161415610c4b576040517f08c379a0000000000000000000000000000000000000000000000000000000008152600401610c42906114af565b60405180910390fd5b80600160008573ffffffffffffffffffffffffffffffffffffffff1673ffffffffffffffffffffffffffffffffffffffff16815260200190815260200160002060008473ffffffffffffffffffffffffffffffffffffffff1673ffffffffffffffffffffffffffffffffffffffff168152602001908152602001600020819055508173ffffffffffffffffffffffffffffffffffffffff168373ffffffffffffffffffffffffffffffffffffffff167f8c5be1e5ebec7d5bd14f71427d1e84f3dd0314c0f7b2291e5b200ac8c7c3b92583604051610d2991906115cf565b60405180910390a3505050565b600073ffffffffffffffffffffffffffffffffffffffff168273ffffffffffffffffffffffffffffffffffffffff161415610da6576040517f08c379a0000000000000000000000000000000000000000000000000000000008152600401610d9d906115af565b60405180910390fd5b610db260008383611117565b8060026000828254610dc49190611621565b92505081905550806000808473ffffffffffffffffffffffffffffffffffffffff1673ffffffffffffffffffffffffffffffffffffffff1681526020019081526020016000206000828254610e199190611621565b925050819055508173ffffffffffffffffffffffffffffffffffffffff16600073ffffffffffffffffffffffffffffffffffffffff167fddf252ad1be2c89b69c2b068fc378daa952ba7f163c4a11628f55a4df523b3ef83604051610e7e91906115cf565b60405180910390a3610e926000838361111c565b5050565b600073ffffffffffffffffffffffffffffffffffffffff168373ffffffffffffffffffffffffffffffffffffffff161415610f06576040517f08c379a0000000000000000000000000000000000000000000000000000000008152600401610efd9061154f565b60405180910390fd5b600073ffffffffffffffffffffffffffffffffffffffff168273ffffffffffffffffffffffffffffffffffffffff161415610f76576040517f08c379a0000000000000000000000000000000000000000000000000000000008152600401610f6d9061148f565b60405180910390fd5b610f81838383611117565b60008060008573ffffffffffffffffffffffffffffffffffffffff1673ffffffffffffffffffffffffffffffffffffffff16815260200190815260200160002054905081811015611007576040517f08c379a0000000000000000000000000000000000000000000000000000000008152600401610ffe906114ef565b60405180910390fd5b8181036000808673ffffffffffffffffffffffffffffffffffffffff1673ffffffffffffffffffffffffffffffffffffffff16815260200190815260200160002081905550816000808573ffffffffffffffffffffffffffffffffffffffff1673ffffffffffffffffffffffffffffffffffffffff168152602001908152602001600020600082825461109a9190611621565b925050819055508273ffffffffffffffffffffffffffffffffffffffff168473ffffffffffffffffffffffffffffffffffffffff167fddf252ad1be2c89b69c2b068fc378daa952ba7f163c4a11628f55a4df523b3ef846040516110fe91906115cf565b60405180910390a361111184848461111c565b50505050565b505050565b505050565b60008135905061113081611a9e565b92915050565b60008135905061114581611ab5565b92915050565b60006020828403121561115d57600080fd5b600061116b84828501611121565b91505092915050565b6000806040838503121561118757600080fd5b600061119585828601611121565b92505060206111a685828601611121565b9150509250929050565b6000806000606084860312156111c557600080fd5b60006111d386828701611121565b93505060206111e486828701611121565b92505060406111f586828701611136565b9150509250925092565b6000806040838503121561121257600080fd5b600061122085828601611121565b925050602061123185828601611136565b9150509250929050565b60006020828403121561124d57600080fd5b600061125b84828501611136565b91505092915050565b61126d816116d1565b82525050565b61127c816116e3565b82525050565b600061128d82611605565b6112978185611610565b93506112a7818560208601611726565b6112b0816117e9565b840191505092915050565b60006112c8602383611610565b91506112d3826117fa565b604082019050919050565b60006112eb602283611610565b91506112f682611849565b604082019050919050565b600061130e601283611610565b915061131982611898565b602082019050919050565b6000611331602683611610565b915061133c826118c1565b604082019050919050565b6000611354602883611610565b915061135f82611910565b604082019050919050565b6000611377600b83611610565b91506113828261195f565b602082019050919050565b600061139a602583611610565b91506113a582611988565b604082019050919050565b60006113bd602483611610565b91506113c8826119d7565b604082019050919050565b60006113e0602583611610565b91506113eb82611a26565b604082019050919050565b6000611403601f83611610565b915061140e82611a75565b602082019050919050565b6114228161170f565b82525050565b61143181611719565b82525050565b600060208201905061144c6000830184611264565b92915050565b60006020820190506114676000830184611273565b92915050565b600060208201905081810360008301526114878184611282565b905092915050565b600060208201905081810360008301526114a8816112bb565b9050919050565b600060208201905081810360008301526114c8816112de565b9050919050565b600060208201905081810360008301526114e881611301565b9050919050565b6000602082019050818103600083015261150881611324565b9050919050565b6000602082019050818103600083015261152881611347565b9050919050565b600060208201905081810360008301526115488161136a565b9050919050565b600060208201905081810360008301526115688161138d565b9050919050565b60006020820190508181036000830152611588816113b0565b9050919050565b600060208201905081810360008301526115a8816113d3565b9050919050565b600060208201905081810360008301526115c8816113f6565b9050919050565b60006020820190506115e46000830184611419565b92915050565b60006020820190506115ff6000830184611428565b92915050565b600081519050919050565b600082825260208201905092915050565b600061162c8261170f565b91506116378361170f565b9250827fffffffffffffffffffffffffffffffffffffffffffffffffffffffffffffffff0382111561166c5761166b61178b565b5b828201905092915050565b60006116828261170f565b915061168d8361170f565b9250817fffffffffffffffffffffffffffffffffffffffffffffffffffffffffffffffff04831182151516156116c6576116c561178b565b5b828202905092915050565b60006116dc826116ef565b9050919050565b60008115159050919050565b600073ffffffffffffffffffffffffffffffffffffffff82169050919050565b6000819050919050565b600060ff82169050919050565b60005b83811015611744578082015181840152602081019050611729565b83811115611753576000848401525b50505050565b6000600282049050600182168061177157607f821691505b60208210811415611785576117846117ba565b5b50919050565b7f4e487b7100000000000000000000000000000000000000000000000000000000600052601160045260246000fd5b7f4e487b7100000000000000000000000000000000000000000000000000000000600052602260045260246000fd5b6000601f19601f8301169050919050565b7f45524332303a207472616e7366657220746f20746865207a65726f206164647260008201527f6573730000000000000000000000000000000000000000000000000000000000602082015250565b7f45524332303a20617070726f766520746f20746865207a65726f20616464726560008201527f7373000000000000000000000000000000000000000000000000000000000000602082015250565b7f414c52454144595f524547495354455245440000000000000000000000000000600082015250565b7f45524332303a207472616e7366657220616d6f756e742065786365656473206260008201527f616c616e63650000000000000000000000000000000000000000000000000000602082015250565b7f45524332303a207472616e7366657220616d6f756e742065786365656473206160008201527f6c6c6f77616e6365000000000000000000000000000000000000000000000000602082015250565b7f43414e4e4f545f4d494e54000000000000000000000000000000000000000000600082015250565b7f45524332303a207472616e736665722066726f6d20746865207a65726f20616460008201527f6472657373000000000000000000000000000000000000000000000000000000602082015250565b7f45524332303a20617070726f76652066726f6d20746865207a65726f2061646460008201527f7265737300000000000000000000000000000000000000000000000000000000602082015250565b7f45524332303a2064656372656173656420616c6c6f77616e63652062656c6f7760008201527f207a65726f000000000000000000000000000000000000000000000000000000602082015250565b7f45524332303a206d696e7420746f20746865207a65726f206164647265737300600082015250565b611aa7816116d1565b8114611ab257600080fd5b50565b611abe8161170f565b8114611ac957600080fd5b5056fea2646970667358221220599db08f4dc4b3bc1c8afb57fe31a92bd6b5df0853c446c3837cd82b636a9b9b64736f6c63430008040033",
  "linkReferences": {},
  "deployedLinkReferences": {}
}