{
  "_format": "hh-sol-artifact-1",
  "contractName": "Concord",
  "sourceName": "contracts/Concord.sol",
  "abi": [
    {
      "inputs": [
        {
          "internalType": "address",
          "name": "bot",
          "type": "address"
        },
        {
          "internalType": "address",
          "name": "_member",
          "type": "address"
        }
      ],
      "stateMutability": "payable",
      "type": "constructor"
    },
    {
      "anonymous": false,
      "inputs": [
        {
          "indexed": true,
          "internalType": "address",
          "name": "owner",
          "type": "address"
        },
        {
          "indexed": true,
          "internalType": "address",
          "name": "spender",
          "type": "address"
        },
        {
          "indexed": false,
          "internalType": "uint256",
          "name": "value",
          "type": "uint256"
        }
      ],
      "name": "Approval",
      "type": "event"
    },
    {
      "anonymous": false,
      "inputs": [
        {
          "indexed": true,
          "internalType": "address",
          "name": "beneficiary",
          "type": "address"
        },
        {
          "indexed": true,
          "internalType": "uint256",
          "name": "amount",
          "type": "uint256"
        },
        {
          "indexed": true,
          "internalType": "string",
          "name": "task",
          "type": "string"
        }
      ],
      "name": "Claimed",
      "type": "event"
    },
    {
      "anonymous": false,
      "inputs": [
        {
          "indexed": true,
          "internalType": "address",
          "name": "previousOwner",
          "type": "address"
        },
        {
          "indexed": true,
          "internalType": "address",
          "name": "newOwner",
          "type": "address"
        }
      ],
      "name": "OwnershipTransferred",
      "type": "event"
    },
    {
      "anonymous": false,
      "inputs": [
        {
          "indexed": true,
          "internalType": "address",
          "name": "beneficiary",
          "type": "address"
        },
        {
          "indexed": true,
          "internalType": "uint256",
          "name": "amount",
          "type": "uint256"
        },
        {
          "indexed": true,
          "internalType": "string",
          "name": "reason",
          "type": "string"
        }
      ],
      "name": "ProposalExecuted",
      "type": "event"
    },
    {
      "anonymous": false,
      "inputs": [
        {
          "indexed": true,
          "internalType": "address",
          "name": "from",
          "type": "address"
        },
        {
          "indexed": true,
          "internalType": "address",
          "name": "to",
          "type": "address"
        },
        {
          "indexed": false,
          "internalType": "uint256",
          "name": "value",
          "type": "uint256"
        }
      ],
      "name": "Transfer",
      "type": "event"
    },
    {
      "inputs": [
        {
          "internalType": "address",
          "name": "owner",
          "type": "address"
        },
        {
          "internalType": "address",
          "name": "spender",
          "type": "address"
        }
      ],
      "name": "allowance",
      "outputs": [
        {
          "internalType": "uint256",
          "name": "",
          "type": "uint256"
        }
      ],
      "stateMutability": "view",
      "type": "function"
    },
    {
      "inputs": [
        {
          "internalType": "address",
          "name": "spender",
          "type": "address"
        },
        {
          "internalType": "uint256",
          "name": "amount",
          "type": "uint256"
        }
      ],
      "name": "approve",
      "outputs": [
        {
          "internalType": "bool",
          "name": "",
          "type": "bool"
        }
      ],
      "stateMutability": "nonpayable",
      "type": "function"
    },
    {
      "inputs": [
        {
          "internalType": "address",
          "name": "account",
          "type": "address"
        }
      ],
      "name": "balanceOf",
      "outputs": [
        {
          "internalType": "uint256",
          "name": "",
          "type": "uint256"
        }
      ],
      "stateMutability": "view",
      "type": "function"
    },
    {
      "inputs": [],
      "name": "checkBalance",
      "outputs": [
        {
          "internalType": "uint256",
          "name": "",
          "type": "uint256"
        }
      ],
      "stateMutability": "view",
      "type": "function"
    },
    {
      "inputs": [],
      "name": "checkTokenBalance",
      "outputs": [
        {
          "internalType": "uint256",
          "name": "",
          "type": "uint256"
        }
      ],
      "stateMutability": "view",
      "type": "function"
    },
    {
      "inputs": [
        {
          "internalType": "address",
          "name": "beneficiary",
          "type": "address"
        },
        {
          "internalType": "uint256",
          "name": "amount",
          "type": "uint256"
        },
        {
          "internalType": "string",
          "name": "task",
          "type": "string"
        }
      ],
      "name": "claim",
      "outputs": [],
      "stateMutability": "payable",
      "type": "function"
    },
    {
      "inputs": [],
      "name": "decimals",
      "outputs": [
        {
          "internalType": "uint8",
          "name": "",
          "type": "uint8"
        }
      ],
      "stateMutability": "view",
      "type": "function"
    },
    {
      "inputs": [
        {
          "internalType": "address",
          "name": "spender",
          "type": "address"
        },
        {
          "internalType": "uint256",
          "name": "subtractedValue",
          "type": "uint256"
        }
      ],
      "name": "decreaseAllowance",
      "outputs": [
        {
          "internalType": "bool",
          "name": "",
          "type": "bool"
        }
      ],
      "stateMutability": "nonpayable",
      "type": "function"
    },
    {
      "inputs": [
        {
          "internalType": "address",
          "name": "beneficiary",
          "type": "address"
        },
        {
          "internalType": "uint256",
          "name": "amount",
          "type": "uint256"
        },
        {
          "internalType": "string",
          "name": "reason",
          "type": "string"
        }
      ],
      "name": "executeProposal",
      "outputs": [],
      "stateMutability": "payable",
      "type": "function"
    },
    {
      "inputs": [],
      "name": "give",
      "outputs": [],
      "stateMutability": "payable",
      "type": "function"
    },
    {
      "inputs": [
        {
          "internalType": "address",
          "name": "spender",
          "type": "address"
        },
        {
          "internalType": "uint256",
          "name": "addedValue",
          "type": "uint256"
        }
      ],
      "name": "increaseAllowance",
      "outputs": [
        {
          "internalType": "bool",
          "name": "",
          "type": "bool"
        }
      ],
      "stateMutability": "nonpayable",
      "type": "function"
    },
    {
      "inputs": [],
      "name": "name",
      "outputs": [
        {
          "internalType": "string",
          "name": "",
          "type": "string"
        }
      ],
      "stateMutability": "view",
      "type": "function"
    },
    {
      "inputs": [],
      "name": "owner",
      "outputs": [
        {
          "internalType": "address",
          "name": "",
          "type": "address"
        }
      ],
      "stateMutability": "view",
      "type": "function"
    },
    {
      "inputs": [
        {
          "internalType": "uint256",
          "name": "amount",
          "type": "uint256"
        }
      ],
      "name": "rageQuit",
      "outputs": [],
      "stateMutability": "payable",
      "type": "function"
    },
    {
      "inputs": [
        {
          "internalType": "address",
          "name": "_member",
          "type": "address"
        }
      ],
      "name": "register",
      "outputs": [],
      "stateMutability": "nonpayable",
      "type": "function"
    },
    {
      "inputs": [],
      "name": "renounceOwnership",
      "outputs": [],
      "stateMutability": "nonpayable",
      "type": "function"
    },
    {
      "inputs": [],
      "name": "shutDown",
      "outputs": [
        {
          "internalType": "string",
          "name": "",
          "type": "string"
        }
      ],
      "stateMutability": "payable",
      "type": "function"
    },
    {
      "inputs": [],
      "name": "symbol",
      "outputs": [
        {
          "internalType": "string",
          "name": "",
          "type": "string"
        }
      ],
      "stateMutability": "view",
      "type": "function"
    },
    {
      "inputs": [
        {
          "internalType": "uint256",
          "name": "tipper",
          "type": "uint256"
        },
        {
          "internalType": "uint256",
          "name": "recipient",
          "type": "uint256"
        },
        {
          "internalType": "uint256",
          "name": "amount",
          "type": "uint256"
        }
      ],
      "name": "tip",
      "outputs": [],
      "stateMutability": "nonpayable",
      "type": "function"
    },
    {
      "inputs": [
        {
          "internalType": "uint256",
          "name": "_id",
          "type": "uint256"
        },
        {
          "internalType": "address",
          "name": "_user",
          "type": "address"
        },
        {
          "internalType": "uint256",
          "name": "_amount",
          "type": "uint256"
        }
      ],
      "name": "topup",
      "outputs": [],
      "stateMutability": "nonpayable",
      "type": "function"
    },
    {
      "inputs": [],
      "name": "totalSupply",
      "outputs": [
        {
          "internalType": "uint256",
          "name": "",
          "type": "uint256"
        }
      ],
      "stateMutability": "view",
      "type": "function"
    },
    {
      "inputs": [
        {
          "internalType": "address",
          "name": "recipient",
          "type": "address"
        },
        {
          "internalType": "uint256",
          "name": "amount",
          "type": "uint256"
        }
      ],
      "name": "transfer",
      "outputs": [
        {
          "internalType": "bool",
          "name": "",
          "type": "bool"
        }
      ],
      "stateMutability": "nonpayable",
      "type": "function"
    },
    {
      "inputs": [
        {
          "internalType": "address",
          "name": "sender",
          "type": "address"
        },
        {
          "internalType": "address",
          "name": "recipient",
          "type": "address"
        },
        {
          "internalType": "uint256",
          "name": "amount",
          "type": "uint256"
        }
      ],
      "name": "transferFrom",
      "outputs": [
        {
          "internalType": "bool",
          "name": "",
          "type": "bool"
        }
      ],
      "stateMutability": "nonpayable",
      "type": "function"
    },
    {
      "inputs": [
        {
          "internalType": "address",
          "name": "newOwner",
          "type": "address"
        }
      ],
      "name": "transferOwnership",
      "outputs": [],
      "stateMutability": "nonpayable",
      "type": "function"
    },
    {
      "inputs": [
        {
          "internalType": "uint256",
          "name": "",
          "type": "uint256"
        }
      ],
      "name": "users",
      "outputs": [
        {
          "internalType": "address",
          "name": "addr",
          "type": "address"
        },
        {
          "internalType": "uint256",
          "name": "bal",
          "type": "uint256"
        },
        {
          "internalType": "bool",
          "name": "member",
          "type": "bool"
        }
      ],
      "stateMutability": "view",
      "type": "function"
    },
    {
      "inputs": [
        {
          "internalType": "uint256",
          "name": "_id",
          "type": "uint256"
        },
        {
          "internalType": "uint256",
          "name": "_amount",
          "type": "uint256"
        }
      ],
      "name": "withdraw",
      "outputs": [],
      "stateMutability": "payable",
      "type": "function"
    },
    {
      "stateMutability": "payable",
      "type": "receive"
    }
  ],
  "bytecode": "0x60806040526040516200386c3803806200386c833981810160405281019062000029919062000746565b6040518060400160405280600881526020017f434320546f6b656e0000000000000000000000000000000000000000000000008152506040518060400160405280600281526020017f43430000000000000000000000000000000000000000000000000000000000008152508160039080519060200190620000ad9291906200062c565b508060049080519060200190620000c69291906200062c565b505050620000e9620000dd6200011360201b60201c565b6200011b60201b60201c565b620000fa81620001e160201b60201c565b6200010b826200036960201b60201c565b505062000a43565b600033905090565b6000600560009054906101000a900473ffffffffffffffffffffffffffffffffffffffff16905081600560006101000a81548173ffffffffffffffffffffffffffffffffffffffff021916908373ffffffffffffffffffffffffffffffffffffffff1602179055508173ffffffffffffffffffffffffffffffffffffffff168173ffffffffffffffffffffffffffffffffffffffff167f8be0079c531659141344cd1fd0a4f28419497f9722a3daafe3b4186f6b6457e060405160405180910390a35050565b620001f16200011360201b60201c565b73ffffffffffffffffffffffffffffffffffffffff16620002176200047f60201b60201c565b73ffffffffffffffffffffffffffffffffffffffff161462000270576040517f08c379a00000000000000000000000000000000000000000000000000000000081526004016200026790620007ee565b60405180910390fd5b600660405180606001604052808373ffffffffffffffffffffffffffffffffffffffff168152602001680ad78ebc5ac6200000815260200160011515815250908060018154018082558091505060019003906000526020600020906003020160009091909190915060008201518160000160006101000a81548173ffffffffffffffffffffffffffffffffffffffff021916908373ffffffffffffffffffffffffffffffffffffffff1602179055506020820151816001015560408201518160020160006101000a81548160ff02191690831515021790555050506200036630680ad78ebc5ac6200000620004a960201b60201c565b50565b620003796200011360201b60201c565b73ffffffffffffffffffffffffffffffffffffffff166200039f6200047f60201b60201c565b73ffffffffffffffffffffffffffffffffffffffff1614620003f8576040517f08c379a0000000000000000000000000000000000000000000000000000000008152600401620003ef90620007ee565b60405180910390fd5b600073ffffffffffffffffffffffffffffffffffffffff168173ffffffffffffffffffffffffffffffffffffffff1614156200046b576040517f08c379a0000000000000000000000000000000000000000000000000000000008152600401620004629062000886565b60405180910390fd5b6200047c816200011b60201b60201c565b50565b6000600560009054906101000a900473ffffffffffffffffffffffffffffffffffffffff16905090565b600073ffffffffffffffffffffffffffffffffffffffff168273ffffffffffffffffffffffffffffffffffffffff1614156200051c576040517f08c379a00000000000000000000000000000000000000000000000000000000081526004016200051390620008f8565b60405180910390fd5b62000530600083836200062260201b60201c565b806002600082825462000544919062000953565b92505081905550806000808473ffffffffffffffffffffffffffffffffffffffff1673ffffffffffffffffffffffffffffffffffffffff16815260200190815260200160002060008282546200059b919062000953565b925050819055508173ffffffffffffffffffffffffffffffffffffffff16600073ffffffffffffffffffffffffffffffffffffffff167fddf252ad1be2c89b69c2b068fc378daa952ba7f163c4a11628f55a4df523b3ef83604051620006029190620009c1565b60405180910390a36200061e600083836200062760201b60201c565b5050565b505050565b505050565b8280546200063a9062000a0d565b90600052602060002090601f0160209004810192826200065e5760008555620006aa565b82601f106200067957805160ff1916838001178555620006aa565b82800160010185558215620006aa579182015b82811115620006a95782518255916020019190600101906200068c565b5b509050620006b99190620006bd565b5090565b5b80821115620006d8576000816000905550600101620006be565b5090565b600080fd5b600073ffffffffffffffffffffffffffffffffffffffff82169050919050565b60006200070e82620006e1565b9050919050565b620007208162000701565b81146200072c57600080fd5b50565b600081519050620007408162000715565b92915050565b6000806040838503121562000760576200075f620006dc565b5b600062000770858286016200072f565b925050602062000783858286016200072f565b9150509250929050565b600082825260208201905092915050565b7f4f776e61626c653a2063616c6c6572206973206e6f7420746865206f776e6572600082015250565b6000620007d66020836200078d565b9150620007e3826200079e565b602082019050919050565b600060208201905081810360008301526200080981620007c7565b9050919050565b7f4f776e61626c653a206e6577206f776e657220697320746865207a65726f206160008201527f6464726573730000000000000000000000000000000000000000000000000000602082015250565b60006200086e6026836200078d565b91506200087b8262000810565b604082019050919050565b60006020820190508181036000830152620008a1816200085f565b9050919050565b7f45524332303a206d696e7420746f20746865207a65726f206164647265737300600082015250565b6000620008e0601f836200078d565b9150620008ed82620008a8565b602082019050919050565b600060208201905081810360008301526200091381620008d1565b9050919050565b6000819050919050565b7f4e487b7100000000000000000000000000000000000000000000000000000000600052601160045260246000fd5b600062000960826200091a565b91506200096d836200091a565b9250827fffffffffffffffffffffffffffffffffffffffffffffffffffffffffffffffff03821115620009a557620009a462000924565b5b828201905092915050565b620009bb816200091a565b82525050565b6000602082019050620009d86000830184620009b0565b92915050565b7f4e487b7100000000000000000000000000000000000000000000000000000000600052602260045260246000fd5b6000600282049050600182168062000a2657607f821691505b6020821081141562000a3d5762000a3c620009de565b5b50919050565b612e198062000a536000396000f3fe6080604052600436106101855760003560e01c806370a08231116100d1578063a457c2d71161008a578063c71daccb11610064578063c71daccb14610549578063dd62ed3e14610574578063f238d9db146105b1578063f2fde38b146105da57610194565b8063a457c2d7146104b3578063a9059cbb146104f0578063b80ad9a51461052d57610194565b806370a08231146103d6578063715018a6146104135780638da5cb5b1461042a57806395d89b41146104555780639d9b4331146104805780639e96a23a146104a957610194565b8063313ce5671161013e578063441a3e7011610118578063441a3e701461034a5780634420e486146103665780634f7310871461038f57806365f969f6146103ba57610194565b8063313ce567146102a3578063365b98b2146102ce578063395093511461030d57610194565b806306fdde0314610199578063095ea7b3146101c457806310b9e5831461020157806318160ddd1461021f57806323b872dd1461024a578063269c0eec1461028757610194565b3661019457610192610603565b005b600080fd5b3480156101a557600080fd5b506101ae61060f565b6040516101bb9190611eb0565b60405180910390f35b3480156101d057600080fd5b506101eb60048036038101906101e69190611f7a565b6106a1565b6040516101f89190611fd5565b60405180910390f35b6102096106bf565b6040516102169190611eb0565b60405180910390f35b34801561022b57600080fd5b506102346106fc565b6040516102419190611fff565b60405180910390f35b34801561025657600080fd5b50610271600480360381019061026c919061201a565b610706565b60405161027e9190611fd5565b60405180910390f35b6102a1600480360381019061029c91906121a2565b6107fe565b005b3480156102af57600080fd5b506102b8610962565b6040516102c5919061222d565b60405180910390f35b3480156102da57600080fd5b506102f560048036038101906102f09190612248565b61096b565b60405161030493929190612284565b60405180910390f35b34801561031957600080fd5b50610334600480360381019061032f9190611f7a565b6109d2565b6040516103419190611fd5565b60405180910390f35b610364600480360381019061035f91906122bb565b610a7e565b005b34801561037257600080fd5b5061038d600480360381019061038891906122fb565b610b8a565b005b34801561039b57600080fd5b506103a4610cf7565b6040516103b19190611fff565b60405180910390f35b6103d460048036038101906103cf9190612248565b610d07565b005b3480156103e257600080fd5b506103fd60048036038101906103f891906122fb565b610d84565b60405161040a9190611fff565b60405180910390f35b34801561041f57600080fd5b50610428610dcc565b005b34801561043657600080fd5b5061043f610e54565b60405161044c9190612328565b60405180910390f35b34801561046157600080fd5b5061046a610e7e565b6040516104779190611eb0565b60405180910390f35b34801561048c57600080fd5b506104a760048036038101906104a29190612343565b610f10565b005b6104b1610603565b005b3480156104bf57600080fd5b506104da60048036038101906104d59190611f7a565b6110ab565b6040516104e79190611fd5565b60405180910390f35b3480156104fc57600080fd5b5061051760048036038101906105129190611f7a565b611196565b6040516105249190611fd5565b60405180910390f35b610547600480360381019061054291906121a2565b6111b4565b005b34801561055557600080fd5b5061055e611299565b60405161056b9190611fff565b60405180910390f35b34801561058057600080fd5b5061059b60048036038101906105969190612396565b6112a1565b6040516105a89190611fff565b60405180910390f35b3480156105bd57600080fd5b506105d860048036038101906105d391906123d6565b611328565b005b3480156105e657600080fd5b5061060160048036038101906105fc91906122fb565b6114c4565b005b61060d33346115bc565b565b60606003805461061e90612458565b80601f016020809104026020016040519081016040528092919081815260200182805461064a90612458565b80156106975780601f1061066c57610100808354040283529160200191610697565b820191906000526020600020905b81548152906001019060200180831161067a57829003601f168201915b5050505050905090565b60006106b56106ae61171c565b8484611724565b6001905092915050565b60606040518060400160405280600981526020017f47616d65206f7665720000000000000000000000000000000000000000000000815250905090565b6000600254905090565b60006107138484846118ef565b6000600160008673ffffffffffffffffffffffffffffffffffffffff1673ffffffffffffffffffffffffffffffffffffffff168152602001908152602001600020600061075e61171c565b73ffffffffffffffffffffffffffffffffffffffff1673ffffffffffffffffffffffffffffffffffffffff168152602001908152602001600020549050828110156107de576040517f08c379a00000000000000000000000000000000000000000000000000000000081526004016107d5906124fc565b60405180910390fd5b6107f2856107ea61171c565b858403611724565b60019150509392505050565b61080661171c565b73ffffffffffffffffffffffffffffffffffffffff16610824610e54565b73ffffffffffffffffffffffffffffffffffffffff161461087a576040517f08c379a000000000000000000000000000000000000000000000000000000000815260040161087190612568565b60405180910390fd5b8147116108bc576040517f08c379a00000000000000000000000000000000000000000000000000000000081526004016108b3906125d4565b60405180910390fd5b8273ffffffffffffffffffffffffffffffffffffffff166108fc839081150290604051600060405180830381858888f19350505050158015610902573d6000803e3d6000fd5b50806040516109119190612630565b6040518091039020828473ffffffffffffffffffffffffffffffffffffffff167fc87f0a1f20f17fb2aedd7bb0ff26d95b784fd19de30172b1e8ad8bcc5638b5bd60405160405180910390a4505050565b60006012905090565b6006818154811061097b57600080fd5b90600052602060002090600302016000915090508060000160009054906101000a900473ffffffffffffffffffffffffffffffffffffffff16908060010154908060020160009054906101000a900460ff16905083565b6000610a746109df61171c565b8484600160006109ed61171c565b73ffffffffffffffffffffffffffffffffffffffff1673ffffffffffffffffffffffffffffffffffffffff16815260200190815260200160002060008873ffffffffffffffffffffffffffffffffffffffff1673ffffffffffffffffffffffffffffffffffffffff16815260200190815260200160002054610a6f9190612676565b611724565b6001905092915050565b610a8661171c565b73ffffffffffffffffffffffffffffffffffffffff16610aa4610e54565b73ffffffffffffffffffffffffffffffffffffffff1614610afa576040517f08c379a0000000000000000000000000000000000000000000000000000000008152600401610af190612568565b60405180910390fd5b8060068381548110610b0f57610b0e6126cc565b5b90600052602060002090600302016001016000828254610b2f91906126fb565b92505081905550610b863060068481548110610b4e57610b4d6126cc565b5b906000526020600020906003020160000160009054906101000a900473ffffffffffffffffffffffffffffffffffffffff16836118ef565b5050565b610b9261171c565b73ffffffffffffffffffffffffffffffffffffffff16610bb0610e54565b73ffffffffffffffffffffffffffffffffffffffff1614610c06576040517f08c379a0000000000000000000000000000000000000000000000000000000008152600401610bfd90612568565b60405180910390fd5b600660405180606001604052808373ffffffffffffffffffffffffffffffffffffffff168152602001680ad78ebc5ac6200000815260200160011515815250908060018154018082558091505060019003906000526020600020906003020160009091909190915060008201518160000160006101000a81548173ffffffffffffffffffffffffffffffffffffffff021916908373ffffffffffffffffffffffffffffffffffffffff1602179055506020820151816001015560408201518160020160006101000a81548160ff0219169083151502179055505050610cf430680ad78ebc5ac62000006115bc565b50565b6000610d0230610d84565b905090565b610d113382611b70565b3373ffffffffffffffffffffffffffffffffffffffff166108fc600147610d366106fc565b85610d41919061275e565b610d4b919061278f565b610d5591906126fb565b9081150290604051600060405180830381858888f19350505050158015610d80573d6000803e3d6000fd5b5050565b60008060008373ffffffffffffffffffffffffffffffffffffffff1673ffffffffffffffffffffffffffffffffffffffff168152602001908152602001600020549050919050565b610dd461171c565b73ffffffffffffffffffffffffffffffffffffffff16610df2610e54565b73ffffffffffffffffffffffffffffffffffffffff1614610e48576040517f08c379a0000000000000000000000000000000000000000000000000000000008152600401610e3f90612568565b60405180910390fd5b610e526000611d47565b565b6000600560009054906101000a900473ffffffffffffffffffffffffffffffffffffffff16905090565b606060048054610e8d90612458565b80601f0160208091040260200160405190810160405280929190818152602001828054610eb990612458565b8015610f065780601f10610edb57610100808354040283529160200191610f06565b820191906000526020600020905b815481529060010190602001808311610ee957829003601f168201915b5050505050905090565b610f1861171c565b73ffffffffffffffffffffffffffffffffffffffff16610f36610e54565b73ffffffffffffffffffffffffffffffffffffffff1614610f8c576040517f08c379a0000000000000000000000000000000000000000000000000000000008152600401610f8390612568565b60405180910390fd5b600660405180606001604052808473ffffffffffffffffffffffffffffffffffffffff1681526020016000815260200160001515815250908060018154018082558091505060019003906000526020600020906003020160009091909190915060008201518160000160006101000a81548173ffffffffffffffffffffffffffffffffffffffff021916908373ffffffffffffffffffffffffffffffffffffffff1602179055506020820151816001015560408201518160020160006101000a81548160ff02191690831515021790555050508060068481548110611074576110736126cc565b5b906000526020600020906003020160010160008282546110949190612676565b925050819055506110a63083836118ef565b505050565b600080600160006110ba61171c565b73ffffffffffffffffffffffffffffffffffffffff1673ffffffffffffffffffffffffffffffffffffffff16815260200190815260200160002060008573ffffffffffffffffffffffffffffffffffffffff1673ffffffffffffffffffffffffffffffffffffffff16815260200190815260200160002054905082811015611177576040517f08c379a000000000000000000000000000000000000000000000000000000000815260040161116e9061285b565b60405180910390fd5b61118b61118261171c565b85858403611724565b600191505092915050565b60006111aa6111a361171c565b84846118ef565b6001905092915050565b6111bc61171c565b73ffffffffffffffffffffffffffffffffffffffff166111da610e54565b73ffffffffffffffffffffffffffffffffffffffff1614611230576040517f08c379a000000000000000000000000000000000000000000000000000000000815260040161122790612568565b60405180910390fd5b61123a83836115bc565b806040516112489190612630565b6040518091039020828473ffffffffffffffffffffffffffffffffffffffff167faaf4f52f2d9453d1bd23cd1b1cd2388a7dd01f328cfe74ef0ad765fffd89d3f860405160405180910390a4505050565b600047905090565b6000600160008473ffffffffffffffffffffffffffffffffffffffff1673ffffffffffffffffffffffffffffffffffffffff16815260200190815260200160002060008373ffffffffffffffffffffffffffffffffffffffff1673ffffffffffffffffffffffffffffffffffffffff16815260200190815260200160002054905092915050565b61133061171c565b73ffffffffffffffffffffffffffffffffffffffff1661134e610e54565b73ffffffffffffffffffffffffffffffffffffffff16146113a4576040517f08c379a000000000000000000000000000000000000000000000000000000000815260040161139b90612568565b60405180910390fd5b80600684815481106113b9576113b86126cc565b5b9060005260206000209060030201600101541161140b576040517f08c379a0000000000000000000000000000000000000000000000000000000008152600401611402906128c7565b60405180910390fd5b80600684815481106114205761141f6126cc565b5b90600052602060002090600302016001015461143c91906126fb565b600684815481106114505761144f6126cc565b5b906000526020600020906003020160010181905550806006838154811061147a576114796126cc565b5b9060005260206000209060030201600101546114969190612676565b600683815481106114aa576114a96126cc565b5b906000526020600020906003020160010181905550505050565b6114cc61171c565b73ffffffffffffffffffffffffffffffffffffffff166114ea610e54565b73ffffffffffffffffffffffffffffffffffffffff1614611540576040517f08c379a000000000000000000000000000000000000000000000000000000000815260040161153790612568565b60405180910390fd5b600073ffffffffffffffffffffffffffffffffffffffff168173ffffffffffffffffffffffffffffffffffffffff1614156115b0576040517f08c379a00000000000000000000000000000000000000000000000000000000081526004016115a790612959565b60405180910390fd5b6115b981611d47565b50565b600073ffffffffffffffffffffffffffffffffffffffff168273ffffffffffffffffffffffffffffffffffffffff16141561162c576040517f08c379a0000000000000000000000000000000000000000000000000000000008152600401611623906129c5565b60405180910390fd5b61163860008383611e0d565b806002600082825461164a9190612676565b92505081905550806000808473ffffffffffffffffffffffffffffffffffffffff1673ffffffffffffffffffffffffffffffffffffffff168152602001908152602001600020600082825461169f9190612676565b925050819055508173ffffffffffffffffffffffffffffffffffffffff16600073ffffffffffffffffffffffffffffffffffffffff167fddf252ad1be2c89b69c2b068fc378daa952ba7f163c4a11628f55a4df523b3ef836040516117049190611fff565b60405180910390a361171860008383611e12565b5050565b600033905090565b600073ffffffffffffffffffffffffffffffffffffffff168373ffffffffffffffffffffffffffffffffffffffff161415611794576040517f08c379a000000000000000000000000000000000000000000000000000000000815260040161178b90612a57565b60405180910390fd5b600073ffffffffffffffffffffffffffffffffffffffff168273ffffffffffffffffffffffffffffffffffffffff161415611804576040517f08c379a00000000000000000000000000000000000000000000000000000000081526004016117fb90612ae9565b60405180910390fd5b80600160008573ffffffffffffffffffffffffffffffffffffffff1673ffffffffffffffffffffffffffffffffffffffff16815260200190815260200160002060008473ffffffffffffffffffffffffffffffffffffffff1673ffffffffffffffffffffffffffffffffffffffff168152602001908152602001600020819055508173ffffffffffffffffffffffffffffffffffffffff168373ffffffffffffffffffffffffffffffffffffffff167f8c5be1e5ebec7d5bd14f71427d1e84f3dd0314c0f7b2291e5b200ac8c7c3b925836040516118e29190611fff565b60405180910390a3505050565b600073ffffffffffffffffffffffffffffffffffffffff168373ffffffffffffffffffffffffffffffffffffffff16141561195f576040517f08c379a000000000000000000000000000000000000000000000000000000000815260040161195690612b7b565b60405180910390fd5b600073ffffffffffffffffffffffffffffffffffffffff168273ffffffffffffffffffffffffffffffffffffffff1614156119cf576040517f08c379a00000000000000000000000000000000000000000000000000000000081526004016119c690612c0d565b60405180910390fd5b6119da838383611e0d565b60008060008573ffffffffffffffffffffffffffffffffffffffff1673ffffffffffffffffffffffffffffffffffffffff16815260200190815260200160002054905081811015611a60576040517f08c379a0000000000000000000000000000000000000000000000000000000008152600401611a5790612c9f565b60405180910390fd5b8181036000808673ffffffffffffffffffffffffffffffffffffffff1673ffffffffffffffffffffffffffffffffffffffff16815260200190815260200160002081905550816000808573ffffffffffffffffffffffffffffffffffffffff1673ffffffffffffffffffffffffffffffffffffffff1681526020019081526020016000206000828254611af39190612676565b925050819055508273ffffffffffffffffffffffffffffffffffffffff168473ffffffffffffffffffffffffffffffffffffffff167fddf252ad1be2c89b69c2b068fc378daa952ba7f163c4a11628f55a4df523b3ef84604051611b579190611fff565b60405180910390a3611b6a848484611e12565b50505050565b600073ffffffffffffffffffffffffffffffffffffffff168273ffffffffffffffffffffffffffffffffffffffff161415611be0576040517f08c379a0000000000000000000000000000000000000000000000000000000008152600401611bd790612d31565b60405180910390fd5b611bec82600083611e0d565b60008060008473ffffffffffffffffffffffffffffffffffffffff1673ffffffffffffffffffffffffffffffffffffffff16815260200190815260200160002054905081811015611c72576040517f08c379a0000000000000000000000000000000000000000000000000000000008152600401611c6990612dc3565b60405180910390fd5b8181036000808573ffffffffffffffffffffffffffffffffffffffff1673ffffffffffffffffffffffffffffffffffffffff168152602001908152602001600020819055508160026000828254611cc991906126fb565b92505081905550600073ffffffffffffffffffffffffffffffffffffffff168373ffffffffffffffffffffffffffffffffffffffff167fddf252ad1be2c89b69c2b068fc378daa952ba7f163c4a11628f55a4df523b3ef84604051611d2e9190611fff565b60405180910390a3611d4283600084611e12565b505050565b6000600560009054906101000a900473ffffffffffffffffffffffffffffffffffffffff16905081600560006101000a81548173ffffffffffffffffffffffffffffffffffffffff021916908373ffffffffffffffffffffffffffffffffffffffff1602179055508173ffffffffffffffffffffffffffffffffffffffff168173ffffffffffffffffffffffffffffffffffffffff167f8be0079c531659141344cd1fd0a4f28419497f9722a3daafe3b4186f6b6457e060405160405180910390a35050565b505050565b505050565b600081519050919050565b600082825260208201905092915050565b60005b83811015611e51578082015181840152602081019050611e36565b83811115611e60576000848401525b50505050565b6000601f19601f8301169050919050565b6000611e8282611e17565b611e8c8185611e22565b9350611e9c818560208601611e33565b611ea581611e66565b840191505092915050565b60006020820190508181036000830152611eca8184611e77565b905092915050565b6000604051905090565b600080fd5b600080fd5b600073ffffffffffffffffffffffffffffffffffffffff82169050919050565b6000611f1182611ee6565b9050919050565b611f2181611f06565b8114611f2c57600080fd5b50565b600081359050611f3e81611f18565b92915050565b6000819050919050565b611f5781611f44565b8114611f6257600080fd5b50565b600081359050611f7481611f4e565b92915050565b60008060408385031215611f9157611f90611edc565b5b6000611f9f85828601611f2f565b9250506020611fb085828601611f65565b9150509250929050565b60008115159050919050565b611fcf81611fba565b82525050565b6000602082019050611fea6000830184611fc6565b92915050565b611ff981611f44565b82525050565b60006020820190506120146000830184611ff0565b92915050565b60008060006060848603121561203357612032611edc565b5b600061204186828701611f2f565b935050602061205286828701611f2f565b925050604061206386828701611f65565b9150509250925092565b600080fd5b600080fd5b7f4e487b7100000000000000000000000000000000000000000000000000000000600052604160045260246000fd5b6120af82611e66565b810181811067ffffffffffffffff821117156120ce576120cd612077565b5b80604052505050565b60006120e1611ed2565b90506120ed82826120a6565b919050565b600067ffffffffffffffff82111561210d5761210c612077565b5b61211682611e66565b9050602081019050919050565b82818337600083830152505050565b6000612145612140846120f2565b6120d7565b90508281526020810184848401111561216157612160612072565b5b61216c848285612123565b509392505050565b600082601f8301126121895761218861206d565b5b8135612199848260208601612132565b91505092915050565b6000806000606084860312156121bb576121ba611edc565b5b60006121c986828701611f2f565b93505060206121da86828701611f65565b925050604084013567ffffffffffffffff8111156121fb576121fa611ee1565b5b61220786828701612174565b9150509250925092565b600060ff82169050919050565b61222781612211565b82525050565b6000602082019050612242600083018461221e565b92915050565b60006020828403121561225e5761225d611edc565b5b600061226c84828501611f65565b91505092915050565b61227e81611f06565b82525050565b60006060820190506122996000830186612275565b6122a66020830185611ff0565b6122b36040830184611fc6565b949350505050565b600080604083850312156122d2576122d1611edc565b5b60006122e085828601611f65565b92505060206122f185828601611f65565b9150509250929050565b60006020828403121561231157612310611edc565b5b600061231f84828501611f2f565b91505092915050565b600060208201905061233d6000830184612275565b92915050565b60008060006060848603121561235c5761235b611edc565b5b600061236a86828701611f65565b935050602061237b86828701611f2f565b925050604061238c86828701611f65565b9150509250925092565b600080604083850312156123ad576123ac611edc565b5b60006123bb85828601611f2f565b92505060206123cc85828601611f2f565b9150509250929050565b6000806000606084860312156123ef576123ee611edc565b5b60006123fd86828701611f65565b935050602061240e86828701611f65565b925050604061241f86828701611f65565b9150509250925092565b7f4e487b7100000000000000000000000000000000000000000000000000000000600052602260045260246000fd5b6000600282049050600182168061247057607f821691505b6020821081141561248457612483612429565b5b50919050565b7f45524332303a207472616e7366657220616d6f756e742065786365656473206160008201527f6c6c6f77616e6365000000000000000000000000000000000000000000000000602082015250565b60006124e6602883611e22565b91506124f18261248a565b604082019050919050565b60006020820190508181036000830152612515816124d9565b9050919050565b7f4f776e61626c653a2063616c6c6572206973206e6f7420746865206f776e6572600082015250565b6000612552602083611e22565b915061255d8261251c565b602082019050919050565b6000602082019050818103600083015261258181612545565b9050919050565b7f496e737566696369656e742066756e6473000000000000000000000000000000600082015250565b60006125be601183611e22565b91506125c982612588565b602082019050919050565b600060208201905081810360008301526125ed816125b1565b9050919050565b600081905092915050565b600061260a82611e17565b61261481856125f4565b9350612624818560208601611e33565b80840191505092915050565b600061263c82846125ff565b915081905092915050565b7f4e487b7100000000000000000000000000000000000000000000000000000000600052601160045260246000fd5b600061268182611f44565b915061268c83611f44565b9250827fffffffffffffffffffffffffffffffffffffffffffffffffffffffffffffffff038211156126c1576126c0612647565b5b828201905092915050565b7f4e487b7100000000000000000000000000000000000000000000000000000000600052603260045260246000fd5b600061270682611f44565b915061271183611f44565b92508282101561272457612723612647565b5b828203905092915050565b7f4e487b7100000000000000000000000000000000000000000000000000000000600052601260045260246000fd5b600061276982611f44565b915061277483611f44565b9250826127845761278361272f565b5b828204905092915050565b600061279a82611f44565b91506127a583611f44565b9250817fffffffffffffffffffffffffffffffffffffffffffffffffffffffffffffffff04831182151516156127de576127dd612647565b5b828202905092915050565b7f45524332303a2064656372656173656420616c6c6f77616e63652062656c6f7760008201527f207a65726f000000000000000000000000000000000000000000000000000000602082015250565b6000612845602583611e22565b9150612850826127e9565b604082019050919050565b6000602082019050818103600083015261287481612838565b9050919050565b7f43616e2774207469700000000000000000000000000000000000000000000000600082015250565b60006128b1600983611e22565b91506128bc8261287b565b602082019050919050565b600060208201905081810360008301526128e0816128a4565b9050919050565b7f4f776e61626c653a206e6577206f776e657220697320746865207a65726f206160008201527f6464726573730000000000000000000000000000000000000000000000000000602082015250565b6000612943602683611e22565b915061294e826128e7565b604082019050919050565b6000602082019050818103600083015261297281612936565b9050919050565b7f45524332303a206d696e7420746f20746865207a65726f206164647265737300600082015250565b60006129af601f83611e22565b91506129ba82612979565b602082019050919050565b600060208201905081810360008301526129de816129a2565b9050919050565b7f45524332303a20617070726f76652066726f6d20746865207a65726f2061646460008201527f7265737300000000000000000000000000000000000000000000000000000000602082015250565b6000612a41602483611e22565b9150612a4c826129e5565b604082019050919050565b60006020820190508181036000830152612a7081612a34565b9050919050565b7f45524332303a20617070726f766520746f20746865207a65726f20616464726560008201527f7373000000000000000000000000000000000000000000000000000000000000602082015250565b6000612ad3602283611e22565b9150612ade82612a77565b604082019050919050565b60006020820190508181036000830152612b0281612ac6565b9050919050565b7f45524332303a207472616e736665722066726f6d20746865207a65726f20616460008201527f6472657373000000000000000000000000000000000000000000000000000000602082015250565b6000612b65602583611e22565b9150612b7082612b09565b604082019050919050565b60006020820190508181036000830152612b9481612b58565b9050919050565b7f45524332303a207472616e7366657220746f20746865207a65726f206164647260008201527f6573730000000000000000000000000000000000000000000000000000000000602082015250565b6000612bf7602383611e22565b9150612c0282612b9b565b604082019050919050565b60006020820190508181036000830152612c2681612bea565b9050919050565b7f45524332303a207472616e7366657220616d6f756e742065786365656473206260008201527f616c616e63650000000000000000000000000000000000000000000000000000602082015250565b6000612c89602683611e22565b9150612c9482612c2d565b604082019050919050565b60006020820190508181036000830152612cb881612c7c565b9050919050565b7f45524332303a206275726e2066726f6d20746865207a65726f2061646472657360008201527f7300000000000000000000000000000000000000000000000000000000000000602082015250565b6000612d1b602183611e22565b9150612d2682612cbf565b604082019050919050565b60006020820190508181036000830152612d4a81612d0e565b9050919050565b7f45524332303a206275726e20616d6f756e7420657863656564732062616c616e60008201527f6365000000000000000000000000000000000000000000000000000000000000602082015250565b6000612dad602283611e22565b9150612db882612d51565b604082019050919050565b60006020820190508181036000830152612ddc81612da0565b905091905056fea264697066735822122075c00bf44b029555cb40e4c80f97c268d9e78431d8abe53ccffbd987c07cf33a64736f6c634300080a0033",
  "linkReferences": {},
  "deployedLinkReferences": {}
}