{
  "_format": "hh-sol-artifact-1",
  "contractName": "Concord",
  "sourceName": "contracts/Concord.sol",
  "abi": [
    {
      "inputs": [
        {
          "internalType": "address",
          "name": "concordBot",
          "type": "address"
        },
        {
          "internalType": "address",
          "name": "member",
          "type": "address"
        }
      ],
      "stateMutability": "payable",
      "type": "constructor"
    },
    {
      "anonymous": false,
      "inputs": [
        {
          "indexed": true,
          "internalType": "address",
          "name": "owner",
          "type": "address"
        },
        {
          "indexed": true,
          "internalType": "address",
          "name": "spender",
          "type": "address"
        },
        {
          "indexed": false,
          "internalType": "uint256",
          "name": "value",
          "type": "uint256"
        }
      ],
      "name": "Approval",
      "type": "event"
    },
    {
      "anonymous": false,
      "inputs": [
        {
          "indexed": true,
          "internalType": "address",
          "name": "previousOwner",
          "type": "address"
        },
        {
          "indexed": true,
          "internalType": "address",
          "name": "newOwner",
          "type": "address"
        }
      ],
      "name": "OwnershipTransferred",
      "type": "event"
    },
    {
      "anonymous": false,
      "inputs": [
        {
          "indexed": true,
          "internalType": "address",
          "name": "beneficiary",
          "type": "address"
        },
        {
          "indexed": true,
          "internalType": "uint256",
          "name": "amount",
          "type": "uint256"
        },
        {
          "indexed": true,
          "internalType": "string",
          "name": "reason",
          "type": "string"
        }
      ],
      "name": "ProposalExecuted",
      "type": "event"
    },
    {
      "anonymous": false,
      "inputs": [
        {
          "indexed": true,
          "internalType": "address",
          "name": "from",
          "type": "address"
        },
        {
          "indexed": true,
          "internalType": "address",
          "name": "to",
          "type": "address"
        },
        {
          "indexed": false,
          "internalType": "uint256",
          "name": "value",
          "type": "uint256"
        }
      ],
      "name": "Transfer",
      "type": "event"
    },
    {
      "inputs": [
        {
          "internalType": "address",
          "name": "owner",
          "type": "address"
        },
        {
          "internalType": "address",
          "name": "spender",
          "type": "address"
        }
      ],
      "name": "allowance",
      "outputs": [
        {
          "internalType": "uint256",
          "name": "",
          "type": "uint256"
        }
      ],
      "stateMutability": "view",
      "type": "function"
    },
    {
      "inputs": [
        {
          "internalType": "address",
          "name": "spender",
          "type": "address"
        },
        {
          "internalType": "uint256",
          "name": "amount",
          "type": "uint256"
        }
      ],
      "name": "approve",
      "outputs": [
        {
          "internalType": "bool",
          "name": "",
          "type": "bool"
        }
      ],
      "stateMutability": "nonpayable",
      "type": "function"
    },
    {
      "inputs": [
        {
          "internalType": "address",
          "name": "account",
          "type": "address"
        }
      ],
      "name": "balanceOf",
      "outputs": [
        {
          "internalType": "uint256",
          "name": "",
          "type": "uint256"
        }
      ],
      "stateMutability": "view",
      "type": "function"
    },
    {
      "inputs": [],
      "name": "checkBalance",
      "outputs": [
        {
          "internalType": "uint256",
          "name": "",
          "type": "uint256"
        }
      ],
      "stateMutability": "view",
      "type": "function"
    },
    {
      "inputs": [],
      "name": "checkTokenBalance",
      "outputs": [
        {
          "internalType": "uint256",
          "name": "",
          "type": "uint256"
        }
      ],
      "stateMutability": "view",
      "type": "function"
    },
    {
      "inputs": [],
      "name": "decimals",
      "outputs": [
        {
          "internalType": "uint8",
          "name": "",
          "type": "uint8"
        }
      ],
      "stateMutability": "view",
      "type": "function"
    },
    {
      "inputs": [
        {
          "internalType": "address",
          "name": "spender",
          "type": "address"
        },
        {
          "internalType": "uint256",
          "name": "subtractedValue",
          "type": "uint256"
        }
      ],
      "name": "decreaseAllowance",
      "outputs": [
        {
          "internalType": "bool",
          "name": "",
          "type": "bool"
        }
      ],
      "stateMutability": "nonpayable",
      "type": "function"
    },
    {
      "inputs": [
        {
          "internalType": "address",
          "name": "beneficiary",
          "type": "address"
        },
        {
          "internalType": "uint256",
          "name": "amount",
          "type": "uint256"
        },
        {
          "internalType": "string",
          "name": "reason",
          "type": "string"
        }
      ],
      "name": "executeProposal",
      "outputs": [],
      "stateMutability": "payable",
      "type": "function"
    },
    {
      "inputs": [],
      "name": "give",
      "outputs": [
        {
          "internalType": "string",
          "name": "",
          "type": "string"
        }
      ],
      "stateMutability": "payable",
      "type": "function"
    },
    {
      "inputs": [
        {
          "internalType": "address",
          "name": "spender",
          "type": "address"
        },
        {
          "internalType": "uint256",
          "name": "addedValue",
          "type": "uint256"
        }
      ],
      "name": "increaseAllowance",
      "outputs": [
        {
          "internalType": "bool",
          "name": "",
          "type": "bool"
        }
      ],
      "stateMutability": "nonpayable",
      "type": "function"
    },
    {
      "inputs": [
        {
          "internalType": "uint256",
          "name": "",
          "type": "uint256"
        }
      ],
      "name": "members",
      "outputs": [
        {
          "internalType": "address",
          "name": "addr",
          "type": "address"
        },
        {
          "internalType": "uint256",
          "name": "bal",
          "type": "uint256"
        }
      ],
      "stateMutability": "view",
      "type": "function"
    },
    {
      "inputs": [],
      "name": "name",
      "outputs": [
        {
          "internalType": "string",
          "name": "",
          "type": "string"
        }
      ],
      "stateMutability": "view",
      "type": "function"
    },
    {
      "inputs": [],
      "name": "owner",
      "outputs": [
        {
          "internalType": "address",
          "name": "",
          "type": "address"
        }
      ],
      "stateMutability": "view",
      "type": "function"
    },
    {
      "inputs": [
        {
          "internalType": "address",
          "name": "_member",
          "type": "address"
        }
      ],
      "name": "register",
      "outputs": [],
      "stateMutability": "nonpayable",
      "type": "function"
    },
    {
      "inputs": [],
      "name": "renounceOwnership",
      "outputs": [],
      "stateMutability": "nonpayable",
      "type": "function"
    },
    {
      "inputs": [],
      "name": "shutDown",
      "outputs": [],
      "stateMutability": "payable",
      "type": "function"
    },
    {
      "inputs": [],
      "name": "symbol",
      "outputs": [
        {
          "internalType": "string",
          "name": "",
          "type": "string"
        }
      ],
      "stateMutability": "view",
      "type": "function"
    },
    {
      "inputs": [
        {
          "internalType": "address",
          "name": "tipper",
          "type": "address"
        },
        {
          "internalType": "address",
          "name": "recipient",
          "type": "address"
        },
        {
          "internalType": "uint256",
          "name": "amount",
          "type": "uint256"
        }
      ],
      "name": "tip",
      "outputs": [],
      "stateMutability": "payable",
      "type": "function"
    },
    {
      "inputs": [],
      "name": "totalSupply",
      "outputs": [
        {
          "internalType": "uint256",
          "name": "",
          "type": "uint256"
        }
      ],
      "stateMutability": "view",
      "type": "function"
    },
    {
      "inputs": [
        {
          "internalType": "address",
          "name": "recipient",
          "type": "address"
        },
        {
          "internalType": "uint256",
          "name": "amount",
          "type": "uint256"
        }
      ],
      "name": "transfer",
      "outputs": [
        {
          "internalType": "bool",
          "name": "",
          "type": "bool"
        }
      ],
      "stateMutability": "nonpayable",
      "type": "function"
    },
    {
      "inputs": [
        {
          "internalType": "address",
          "name": "sender",
          "type": "address"
        },
        {
          "internalType": "address",
          "name": "recipient",
          "type": "address"
        },
        {
          "internalType": "uint256",
          "name": "amount",
          "type": "uint256"
        }
      ],
      "name": "transferFrom",
      "outputs": [
        {
          "internalType": "bool",
          "name": "",
          "type": "bool"
        }
      ],
      "stateMutability": "nonpayable",
      "type": "function"
    },
    {
      "inputs": [
        {
          "internalType": "address",
          "name": "newOwner",
          "type": "address"
        }
      ],
      "name": "transferOwnership",
      "outputs": [],
      "stateMutability": "nonpayable",
      "type": "function"
    },
    {
      "inputs": [],
      "name": "withdraw",
      "outputs": [],
      "stateMutability": "payable",
      "type": "function"
    },
    {
      "stateMutability": "payable",
      "type": "receive"
    }
  ],
  "bytecode": "0x608060405260405162002bee38038062002bee8339818101604052810190620000299190620006ca565b6040518060400160405280600881526020017f434320546f6b656e0000000000000000000000000000000000000000000000008152506040518060400160405280600281526020017f43430000000000000000000000000000000000000000000000000000000000008152508160039080519060200190620000ad92919062000603565b508060049080519060200190620000c692919062000603565b505050620000e9620000dd6200011360201b60201c565b6200011b60201b60201c565b620000fa81620001e160201b60201c565b6200010b826200034060201b60201c565b505062000a0f565b600033905090565b6000600560009054906101000a900473ffffffffffffffffffffffffffffffffffffffff16905081600560006101000a81548173ffffffffffffffffffffffffffffffffffffffff021916908373ffffffffffffffffffffffffffffffffffffffff1602179055508173ffffffffffffffffffffffffffffffffffffffff168173ffffffffffffffffffffffffffffffffffffffff167f8be0079c531659141344cd1fd0a4f28419497f9722a3daafe3b4186f6b6457e060405160405180910390a35050565b620001f16200011360201b60201c565b73ffffffffffffffffffffffffffffffffffffffff16620002176200045660201b60201c565b73ffffffffffffffffffffffffffffffffffffffff161462000270576040517f08c379a00000000000000000000000000000000000000000000000000000000081526004016200026790620007b3565b60405180910390fd5b600660405180604001604052808373ffffffffffffffffffffffffffffffffffffffff1681526020016801158e460913d00000815250908060018154018082558091505060019003906000526020600020906002020160009091909190915060008201518160000160006101000a81548173ffffffffffffffffffffffffffffffffffffffff021916908373ffffffffffffffffffffffffffffffffffffffff1602179055506020820151816001015550506200033d30680ad78ebc5ac62000006200048060201b60201c565b50565b620003506200011360201b60201c565b73ffffffffffffffffffffffffffffffffffffffff16620003766200045660201b60201c565b73ffffffffffffffffffffffffffffffffffffffff1614620003cf576040517f08c379a0000000000000000000000000000000000000000000000000000000008152600401620003c690620007b3565b60405180910390fd5b600073ffffffffffffffffffffffffffffffffffffffff168173ffffffffffffffffffffffffffffffffffffffff16141562000442576040517f08c379a0000000000000000000000000000000000000000000000000000000008152600401620004399062000791565b60405180910390fd5b62000453816200011b60201b60201c565b50565b6000600560009054906101000a900473ffffffffffffffffffffffffffffffffffffffff16905090565b600073ffffffffffffffffffffffffffffffffffffffff168273ffffffffffffffffffffffffffffffffffffffff161415620004f3576040517f08c379a0000000000000000000000000000000000000000000000000000000008152600401620004ea90620007d5565b60405180910390fd5b6200050760008383620005f960201b60201c565b80600260008282546200051b919062000825565b92505081905550806000808473ffffffffffffffffffffffffffffffffffffffff1673ffffffffffffffffffffffffffffffffffffffff168152602001908152602001600020600082825462000572919062000825565b925050819055508173ffffffffffffffffffffffffffffffffffffffff16600073ffffffffffffffffffffffffffffffffffffffff167fddf252ad1be2c89b69c2b068fc378daa952ba7f163c4a11628f55a4df523b3ef83604051620005d99190620007f7565b60405180910390a3620005f560008383620005fe60201b60201c565b5050565b505050565b505050565b8280546200061190620008c0565b90600052602060002090601f01602090048101928262000635576000855562000681565b82601f106200065057805160ff191683800117855562000681565b8280016001018555821562000681579182015b828111156200068057825182559160200191906001019062000663565b5b50905062000690919062000694565b5090565b5b80821115620006af57600081600090555060010162000695565b5090565b600081519050620006c481620009f5565b92915050565b60008060408385031215620006de57600080fd5b6000620006ee85828601620006b3565b92505060206200070185828601620006b3565b9150509250929050565b60006200071a60268362000814565b9150620007278262000954565b604082019050919050565b60006200074160208362000814565b91506200074e82620009a3565b602082019050919050565b600062000768601f8362000814565b91506200077582620009cc565b602082019050919050565b6200078b81620008b6565b82525050565b60006020820190508181036000830152620007ac816200070b565b9050919050565b60006020820190508181036000830152620007ce8162000732565b9050919050565b60006020820190508181036000830152620007f08162000759565b9050919050565b60006020820190506200080e600083018462000780565b92915050565b600082825260208201905092915050565b60006200083282620008b6565b91506200083f83620008b6565b9250827fffffffffffffffffffffffffffffffffffffffffffffffffffffffffffffffff03821115620008775762000876620008f6565b5b828201905092915050565b60006200088f8262000896565b9050919050565b600073ffffffffffffffffffffffffffffffffffffffff82169050919050565b6000819050919050565b60006002820490506001821680620008d957607f821691505b60208210811415620008f057620008ef62000925565b5b50919050565b7f4e487b7100000000000000000000000000000000000000000000000000000000600052601160045260246000fd5b7f4e487b7100000000000000000000000000000000000000000000000000000000600052602260045260246000fd5b7f4f776e61626c653a206e6577206f776e657220697320746865207a65726f206160008201527f6464726573730000000000000000000000000000000000000000000000000000602082015250565b7f4f776e61626c653a2063616c6c6572206973206e6f7420746865206f776e6572600082015250565b7f45524332303a206d696e7420746f20746865207a65726f206164647265737300600082015250565b62000a008162000882565b811462000a0c57600080fd5b50565b6121cf8062000a1f6000396000f3fe6080604052600436106101445760003560e01c80635daf08ca116100b6578063a457c2d71161006f578063a457c2d71461041c578063a9059cbb14610459578063c71daccb14610496578063d82555f1146104c1578063dd62ed3e146104dd578063f2fde38b1461051a57610155565b80635daf08ca1461031657806370a0823114610354578063715018a6146103915780638da5cb5b146103a857806395d89b41146103d35780639e96a23a146103fe57610155565b8063269c0eec11610108578063269c0eec14610234578063313ce56714610250578063395093511461027b5780633ccfd60b146102b85780634420e486146102c25780634f731087146102eb57610155565b806306fdde031461015a578063095ea7b31461018557806310b9e583146101c257806318160ddd146101cc57806323b872dd146101f757610155565b36610155576101533334610543565b005b600080fd5b34801561016657600080fd5b5061016f6106a3565b60405161017c9190611a55565b60405180910390f35b34801561019157600080fd5b506101ac60048036038101906101a791906116ec565b610735565b6040516101b99190611a3a565b60405180910390f35b6101ca610753565b005b3480156101d857600080fd5b506101e1610755565b6040516101ee9190611bd7565b60405180910390f35b34801561020357600080fd5b5061021e6004803603810190610219919061169d565b61075f565b60405161022b9190611a3a565b60405180910390f35b61024e60048036038101906102499190611728565b610857565b005b34801561025c57600080fd5b506102656109bb565b6040516102729190611bf2565b60405180910390f35b34801561028757600080fd5b506102a2600480360381019061029d91906116ec565b6109c4565b6040516102af9190611a3a565b60405180910390f35b6102c0610a70565b005b3480156102ce57600080fd5b506102e960048036038101906102e49190611638565b610a72565b005b3480156102f757600080fd5b50610300610bb6565b60405161030d9190611bd7565b60405180910390f35b34801561032257600080fd5b5061033d6004803603810190610338919061178f565b610bc6565b60405161034b929190611a11565b60405180910390f35b34801561036057600080fd5b5061037b60048036038101906103769190611638565b610c1a565b6040516103889190611bd7565b60405180910390f35b34801561039d57600080fd5b506103a6610c62565b005b3480156103b457600080fd5b506103bd610cea565b6040516103ca91906119f6565b60405180910390f35b3480156103df57600080fd5b506103e8610d14565b6040516103f59190611a55565b60405180910390f35b610406610da6565b6040516104139190611a55565b60405180910390f35b34801561042857600080fd5b50610443600480360381019061043e91906116ec565b610ded565b6040516104509190611a3a565b60405180910390f35b34801561046557600080fd5b50610480600480360381019061047b91906116ec565b610ed8565b60405161048d9190611a3a565b60405180910390f35b3480156104a257600080fd5b506104ab610ef6565b6040516104b89190611bd7565b60405180910390f35b6104db60048036038101906104d6919061169d565b610efe565b005b3480156104e957600080fd5b5061050460048036038101906104ff9190611661565b610f03565b6040516105119190611bd7565b60405180910390f35b34801561052657600080fd5b50610541600480360381019061053c9190611638565b610f8a565b005b600073ffffffffffffffffffffffffffffffffffffffff168273ffffffffffffffffffffffffffffffffffffffff1614156105b3576040517f08c379a00000000000000000000000000000000000000000000000000000000081526004016105aa90611bb7565b60405180910390fd5b6105bf60008383611082565b80600260008282546105d19190611c8a565b92505081905550806000808473ffffffffffffffffffffffffffffffffffffffff1673ffffffffffffffffffffffffffffffffffffffff16815260200190815260200160002060008282546106269190611c8a565b925050819055508173ffffffffffffffffffffffffffffffffffffffff16600073ffffffffffffffffffffffffffffffffffffffff167fddf252ad1be2c89b69c2b068fc378daa952ba7f163c4a11628f55a4df523b3ef8360405161068b9190611bd7565b60405180910390a361069f60008383611087565b5050565b6060600380546106b290611d77565b80601f01602080910402602001604051908101604052809291908181526020018280546106de90611d77565b801561072b5780601f106107005761010080835404028352916020019161072b565b820191906000526020600020905b81548152906001019060200180831161070e57829003601f168201915b5050505050905090565b600061074961074261108c565b8484611094565b6001905092915050565b565b6000600254905090565b600061076c84848461125f565b6000600160008673ffffffffffffffffffffffffffffffffffffffff1673ffffffffffffffffffffffffffffffffffffffff16815260200190815260200160002060006107b761108c565b73ffffffffffffffffffffffffffffffffffffffff1673ffffffffffffffffffffffffffffffffffffffff16815260200190815260200160002054905082811015610837576040517f08c379a000000000000000000000000000000000000000000000000000000000815260040161082e90611af7565b60405180910390fd5b61084b8561084361108c565b858403611094565b60019150509392505050565b61085f61108c565b73ffffffffffffffffffffffffffffffffffffffff1661087d610cea565b73ffffffffffffffffffffffffffffffffffffffff16146108d3576040517f08c379a00000000000000000000000000000000000000000000000000000000081526004016108ca90611b17565b60405180910390fd5b814711610915576040517f08c379a000000000000000000000000000000000000000000000000000000000815260040161090c90611b77565b60405180910390fd5b8273ffffffffffffffffffffffffffffffffffffffff166108fc839081150290604051600060405180830381858888f1935050505015801561095b573d6000803e3d6000fd5b508060405161096a91906119df565b6040518091039020828473ffffffffffffffffffffffffffffffffffffffff167fc87f0a1f20f17fb2aedd7bb0ff26d95b784fd19de30172b1e8ad8bcc5638b5bd60405160405180910390a4505050565b60006012905090565b6000610a666109d161108c565b8484600160006109df61108c565b73ffffffffffffffffffffffffffffffffffffffff1673ffffffffffffffffffffffffffffffffffffffff16815260200190815260200160002060008873ffffffffffffffffffffffffffffffffffffffff1673ffffffffffffffffffffffffffffffffffffffff16815260200190815260200160002054610a619190611c8a565b611094565b6001905092915050565b565b610a7a61108c565b73ffffffffffffffffffffffffffffffffffffffff16610a98610cea565b73ffffffffffffffffffffffffffffffffffffffff1614610aee576040517f08c379a0000000000000000000000000000000000000000000000000000000008152600401610ae590611b17565b60405180910390fd5b600660405180604001604052808373ffffffffffffffffffffffffffffffffffffffff1681526020016801158e460913d00000815250908060018154018082558091505060019003906000526020600020906002020160009091909190915060008201518160000160006101000a81548173ffffffffffffffffffffffffffffffffffffffff021916908373ffffffffffffffffffffffffffffffffffffffff160217905550602082015181600101555050610bb330680ad78ebc5ac6200000610543565b50565b6000610bc130610c1a565b905090565b60068181548110610bd657600080fd5b90600052602060002090600202016000915090508060000160009054906101000a900473ffffffffffffffffffffffffffffffffffffffff16908060010154905082565b60008060008373ffffffffffffffffffffffffffffffffffffffff1673ffffffffffffffffffffffffffffffffffffffff168152602001908152602001600020549050919050565b610c6a61108c565b73ffffffffffffffffffffffffffffffffffffffff16610c88610cea565b73ffffffffffffffffffffffffffffffffffffffff1614610cde576040517f08c379a0000000000000000000000000000000000000000000000000000000008152600401610cd590611b17565b60405180910390fd5b610ce860006114e0565b565b6000600560009054906101000a900473ffffffffffffffffffffffffffffffffffffffff16905090565b606060048054610d2390611d77565b80601f0160208091040260200160405190810160405280929190818152602001828054610d4f90611d77565b8015610d9c5780601f10610d7157610100808354040283529160200191610d9c565b820191906000526020600020905b815481529060010190602001808311610d7f57829003601f168201915b5050505050905090565b6060610db23334610543565b6040518060400160405280600781526020017f5468616e6b732100000000000000000000000000000000000000000000000000815250905090565b60008060016000610dfc61108c565b73ffffffffffffffffffffffffffffffffffffffff1673ffffffffffffffffffffffffffffffffffffffff16815260200190815260200160002060008573ffffffffffffffffffffffffffffffffffffffff1673ffffffffffffffffffffffffffffffffffffffff16815260200190815260200160002054905082811015610eb9576040517f08c379a0000000000000000000000000000000000000000000000000000000008152600401610eb090611b97565b60405180910390fd5b610ecd610ec461108c565b85858403611094565b600191505092915050565b6000610eec610ee561108c565b848461125f565b6001905092915050565b600047905090565b505050565b6000600160008473ffffffffffffffffffffffffffffffffffffffff1673ffffffffffffffffffffffffffffffffffffffff16815260200190815260200160002060008373ffffffffffffffffffffffffffffffffffffffff1673ffffffffffffffffffffffffffffffffffffffff16815260200190815260200160002054905092915050565b610f9261108c565b73ffffffffffffffffffffffffffffffffffffffff16610fb0610cea565b73ffffffffffffffffffffffffffffffffffffffff1614611006576040517f08c379a0000000000000000000000000000000000000000000000000000000008152600401610ffd90611b17565b60405180910390fd5b600073ffffffffffffffffffffffffffffffffffffffff168173ffffffffffffffffffffffffffffffffffffffff161415611076576040517f08c379a000000000000000000000000000000000000000000000000000000000815260040161106d90611a97565b60405180910390fd5b61107f816114e0565b50565b505050565b505050565b600033905090565b600073ffffffffffffffffffffffffffffffffffffffff168373ffffffffffffffffffffffffffffffffffffffff161415611104576040517f08c379a00000000000000000000000000000000000000000000000000000000081526004016110fb90611b57565b60405180910390fd5b600073ffffffffffffffffffffffffffffffffffffffff168273ffffffffffffffffffffffffffffffffffffffff161415611174576040517f08c379a000000000000000000000000000000000000000000000000000000000815260040161116b90611ab7565b60405180910390fd5b80600160008573ffffffffffffffffffffffffffffffffffffffff1673ffffffffffffffffffffffffffffffffffffffff16815260200190815260200160002060008473ffffffffffffffffffffffffffffffffffffffff1673ffffffffffffffffffffffffffffffffffffffff168152602001908152602001600020819055508173ffffffffffffffffffffffffffffffffffffffff168373ffffffffffffffffffffffffffffffffffffffff167f8c5be1e5ebec7d5bd14f71427d1e84f3dd0314c0f7b2291e5b200ac8c7c3b925836040516112529190611bd7565b60405180910390a3505050565b600073ffffffffffffffffffffffffffffffffffffffff168373ffffffffffffffffffffffffffffffffffffffff1614156112cf576040517f08c379a00000000000000000000000000000000000000000000000000000000081526004016112c690611b37565b60405180910390fd5b600073ffffffffffffffffffffffffffffffffffffffff168273ffffffffffffffffffffffffffffffffffffffff16141561133f576040517f08c379a000000000000000000000000000000000000000000000000000000000815260040161133690611a77565b60405180910390fd5b61134a838383611082565b60008060008573ffffffffffffffffffffffffffffffffffffffff1673ffffffffffffffffffffffffffffffffffffffff168152602001908152602001600020549050818110156113d0576040517f08c379a00000000000000000000000000000000000000000000000000000000081526004016113c790611ad7565b60405180910390fd5b8181036000808673ffffffffffffffffffffffffffffffffffffffff1673ffffffffffffffffffffffffffffffffffffffff16815260200190815260200160002081905550816000808573ffffffffffffffffffffffffffffffffffffffff1673ffffffffffffffffffffffffffffffffffffffff16815260200190815260200160002060008282546114639190611c8a565b925050819055508273ffffffffffffffffffffffffffffffffffffffff168473ffffffffffffffffffffffffffffffffffffffff167fddf252ad1be2c89b69c2b068fc378daa952ba7f163c4a11628f55a4df523b3ef846040516114c79190611bd7565b60405180910390a36114da848484611087565b50505050565b6000600560009054906101000a900473ffffffffffffffffffffffffffffffffffffffff16905081600560006101000a81548173ffffffffffffffffffffffffffffffffffffffff021916908373ffffffffffffffffffffffffffffffffffffffff1602179055508173ffffffffffffffffffffffffffffffffffffffff168173ffffffffffffffffffffffffffffffffffffffff167f8be0079c531659141344cd1fd0a4f28419497f9722a3daafe3b4186f6b6457e060405160405180910390a35050565b60006115b96115b484611c32565b611c0d565b9050828152602081018484840111156115d157600080fd5b6115dc848285611d35565b509392505050565b6000813590506115f38161216b565b92915050565b600082601f83011261160a57600080fd5b813561161a8482602086016115a6565b91505092915050565b60008135905061163281612182565b92915050565b60006020828403121561164a57600080fd5b6000611658848285016115e4565b91505092915050565b6000806040838503121561167457600080fd5b6000611682858286016115e4565b9250506020611693858286016115e4565b9150509250929050565b6000806000606084860312156116b257600080fd5b60006116c0868287016115e4565b93505060206116d1868287016115e4565b92505060406116e286828701611623565b9150509250925092565b600080604083850312156116ff57600080fd5b600061170d858286016115e4565b925050602061171e85828601611623565b9150509250929050565b60008060006060848603121561173d57600080fd5b600061174b868287016115e4565b935050602061175c86828701611623565b925050604084013567ffffffffffffffff81111561177957600080fd5b611785868287016115f9565b9150509250925092565b6000602082840312156117a157600080fd5b60006117af84828501611623565b91505092915050565b6117c181611ce0565b82525050565b6117d081611cf2565b82525050565b60006117e182611c63565b6117eb8185611c6e565b93506117fb818560208601611d44565b61180481611e67565b840191505092915050565b600061181a82611c63565b6118248185611c7f565b9350611834818560208601611d44565b80840191505092915050565b600061184d602383611c6e565b915061185882611e78565b604082019050919050565b6000611870602683611c6e565b915061187b82611ec7565b604082019050919050565b6000611893602283611c6e565b915061189e82611f16565b604082019050919050565b60006118b6602683611c6e565b91506118c182611f65565b604082019050919050565b60006118d9602883611c6e565b91506118e482611fb4565b604082019050919050565b60006118fc602083611c6e565b915061190782612003565b602082019050919050565b600061191f602583611c6e565b915061192a8261202c565b604082019050919050565b6000611942602483611c6e565b915061194d8261207b565b604082019050919050565b6000611965601183611c6e565b9150611970826120ca565b602082019050919050565b6000611988602583611c6e565b9150611993826120f3565b604082019050919050565b60006119ab601f83611c6e565b91506119b682612142565b602082019050919050565b6119ca81611d1e565b82525050565b6119d981611d28565b82525050565b60006119eb828461180f565b915081905092915050565b6000602082019050611a0b60008301846117b8565b92915050565b6000604082019050611a2660008301856117b8565b611a3360208301846119c1565b9392505050565b6000602082019050611a4f60008301846117c7565b92915050565b60006020820190508181036000830152611a6f81846117d6565b905092915050565b60006020820190508181036000830152611a9081611840565b9050919050565b60006020820190508181036000830152611ab081611863565b9050919050565b60006020820190508181036000830152611ad081611886565b9050919050565b60006020820190508181036000830152611af0816118a9565b9050919050565b60006020820190508181036000830152611b10816118cc565b9050919050565b60006020820190508181036000830152611b30816118ef565b9050919050565b60006020820190508181036000830152611b5081611912565b9050919050565b60006020820190508181036000830152611b7081611935565b9050919050565b60006020820190508181036000830152611b9081611958565b9050919050565b60006020820190508181036000830152611bb08161197b565b9050919050565b60006020820190508181036000830152611bd08161199e565b9050919050565b6000602082019050611bec60008301846119c1565b92915050565b6000602082019050611c0760008301846119d0565b92915050565b6000611c17611c28565b9050611c238282611da9565b919050565b6000604051905090565b600067ffffffffffffffff821115611c4d57611c4c611e38565b5b611c5682611e67565b9050602081019050919050565b600081519050919050565b600082825260208201905092915050565b600081905092915050565b6000611c9582611d1e565b9150611ca083611d1e565b9250827fffffffffffffffffffffffffffffffffffffffffffffffffffffffffffffffff03821115611cd557611cd4611dda565b5b828201905092915050565b6000611ceb82611cfe565b9050919050565b60008115159050919050565b600073ffffffffffffffffffffffffffffffffffffffff82169050919050565b6000819050919050565b600060ff82169050919050565b82818337600083830152505050565b60005b83811015611d62578082015181840152602081019050611d47565b83811115611d71576000848401525b50505050565b60006002820490506001821680611d8f57607f821691505b60208210811415611da357611da2611e09565b5b50919050565b611db282611e67565b810181811067ffffffffffffffff82111715611dd157611dd0611e38565b5b80604052505050565b7f4e487b7100000000000000000000000000000000000000000000000000000000600052601160045260246000fd5b7f4e487b7100000000000000000000000000000000000000000000000000000000600052602260045260246000fd5b7f4e487b7100000000000000000000000000000000000000000000000000000000600052604160045260246000fd5b6000601f19601f8301169050919050565b7f45524332303a207472616e7366657220746f20746865207a65726f206164647260008201527f6573730000000000000000000000000000000000000000000000000000000000602082015250565b7f4f776e61626c653a206e6577206f776e657220697320746865207a65726f206160008201527f6464726573730000000000000000000000000000000000000000000000000000602082015250565b7f45524332303a20617070726f766520746f20746865207a65726f20616464726560008201527f7373000000000000000000000000000000000000000000000000000000000000602082015250565b7f45524332303a207472616e7366657220616d6f756e742065786365656473206260008201527f616c616e63650000000000000000000000000000000000000000000000000000602082015250565b7f45524332303a207472616e7366657220616d6f756e742065786365656473206160008201527f6c6c6f77616e6365000000000000000000000000000000000000000000000000602082015250565b7f4f776e61626c653a2063616c6c6572206973206e6f7420746865206f776e6572600082015250565b7f45524332303a207472616e736665722066726f6d20746865207a65726f20616460008201527f6472657373000000000000000000000000000000000000000000000000000000602082015250565b7f45524332303a20617070726f76652066726f6d20746865207a65726f2061646460008201527f7265737300000000000000000000000000000000000000000000000000000000602082015250565b7f496e737566696369656e742066756e6473000000000000000000000000000000600082015250565b7f45524332303a2064656372656173656420616c6c6f77616e63652062656c6f7760008201527f207a65726f000000000000000000000000000000000000000000000000000000602082015250565b7f45524332303a206d696e7420746f20746865207a65726f206164647265737300600082015250565b61217481611ce0565b811461217f57600080fd5b50565b61218b81611d1e565b811461219657600080fd5b5056fea26469706673582212203732912204f1d28e2d1793d0725681c7de9fde6372d3a5427bef834962ad30d164736f6c63430008040033",
  "linkReferences": {},
  "deployedLinkReferences": {}
}